:020000040800F2
:1000000008040020550B00083D0B00083F0B0008BA
:10001000410B0008430B0008450B000800000000DE
:10002000000000000000000000000000470B000876
:10003000490B0008000000004B0B00084D0B0008A6
:10004000810B0008850B0008890B00088D0B000848
:10005000910B0008950B0008990B00089D0B0008F8
:10006000A10B0008A50B0008A90B0008AD0B0008A8
:10007000B10B0008B50B0008B90B0008BD0B000858
:10008000C10B0008C50B0008C90B0008CD0B000808
:10009000D10B0008D50B0008D90B0008DD0B0008B8
:1000A000E10B0008E50B0008E90B0008ED0B000868
:1000B000F10B0008F50B0008F90B0008FD0B000818
:1000C000010C0008050C0008090C00080D0C0008C4
:1000D000110C0008150C0008190C00081D0C000874
:1000E000210C0008250C0008290C00082D0C000824
:1000F000310C0008350C0008390C00083D0C0008D4
:10010000410C0008450C0008490C00084D0C000883
:10011000510C0008550C0008590C00085D0C000833
:10012000610C0008650C0008690C00086D0C0008E3
:10013000710C0008750C0008790C00087D0C000893
:10014000810C0008850C0008890C00088D0C000843
:10015000910C0008950C0008990C00089D0C0008F3
:10016000A10C0008A50C0008A90C0008AD0C0008A3
:10017000B10C0008B50C0008B90C00080000000024
:10018000BD0C0008C10C0008C50C0008C90C000813
:10019000CD0C0008D10C0008D50C0008D90C0008C3
:1001A000DD0C0008E10C0008E50C0008E90C000873
:1001B000ED0C0008F10C0008F50C0008F90C000823
:1001C000FD0C0008010D000880B500F01BF800F0E0
:1001D00021F800F0D3F800F0C9F901BDC548006866
:1001E000401CC44908607047C2480068704738B571
:1001F0000400FFF7F9FF0500FFF7F6FF401BA042E0
:10020000FAD331BD80B500F00BF800F023F800F010
:1002100013F801BD80B500F027F800F037F801BDF4
:10022000BFF35F8FB448006810F48030B2490860B3
:100230000020B249086070470520B0490860AE4808
:10024000006850F48030AC490860BFF35F8FBFF3A3
:100250006F8F70470020AA490860AA48AA49086021
:10026000AA48AB4908607047BFF34F8FBFF36F8F49
:100270000020A8490860A848006850F40030A6494A
:100280000860BFF34F8FBFF36F8F704710B400202B
:10029000A2490860BFF34F8FA14800681F210322C5
:1002A00043F6E07313EA411353EA82739D4C2360D3
:1002B00013005A1E002BF3D10A00511E002AEED162
:1002C000BFF34F8F944A126852F48032924B1A60F7
:1002D000BFF34F8FBFF36F8F10BC70479248006819
:1002E00050F4007090490860704781B010F007002A
:1002F0008E490968009100994FF6FF021140009164
:1003000000998B4A52EA0022114300910099874AD2
:10031000116001B07047B0F1807F02D37FF07F4160
:100320000800411E834A1160F021834A11700021A8
:10033000824A11600721824A1160704770B47B497C
:100340000968C1F30221D1F10702131F012494406F
:10035000641E9C4014F00F042501774E357070BC6C
:10036000704738B504000D004FF47A70B5FBF0F01B
:10037000FFF7D1FF2000FFF7E1FF31BD80B5FFF7A8
:10038000ADFF0320FFF7B1FF6E490F20FFF7E9FF34
:1003900001BD80B56C48006850F480306A4908603F
:1003A000694800688003FBD56848006810F00C00BD
:1003B000082801D100F0E2F86348006830F080704E
:1003C00061490860604800688001FBD46048614969
:1003D00008605D48006850F080705B4908605A48CA
:1003E00000688001FBD501BD81B05B48006850F01A
:1003F0008050594908605848006810F080500090BB
:100400005648006850F480305449086054480068E9
:10041000002801D1012000E000205048006850F47D
:1004200000304E4908604E480068002801D1012084
:1004300000E0002001B0704780B53B4800680090A4
:100440000098000900010090009850F0070000900B
:100450000098354908603448006810F00F000728FC
:1004600001D000F08BF8394800680090009830F017
:10047000F0000090009800900098344908603348DC
:10048000006800900098800800900098800000901C
:10049000009850F00200009000982C4908602B480A
:1004A000006810F00C000828F9D128480068009076
:1004B000009830F4E0500090009850F4A050009064
:1004C000009822490860214800680090009830F4A4
:1004D00060400090009850F40040009000981B4944
:1004E00008602048204908601F4801680F20FFF776
:1004F00038FF01BD0400002024ED00E094ED00E091
:1005000098ED00E0000001209CED00E023000203D4
:10051000A0ED00E050EF00E014ED00E084ED00E01D
:1005200080ED00E060EF00E0003C02400CED00E0F8
:100530000000FA0514E000E023ED00E018E000E020
:1005400010E000E00024F4000038024008380240C7
:10055000196C4029043802404038024000700040C5
:100560000470004000E6DF0C0000002080B5FFF7BB
:1005700010FFFFF739FFFFF75FFF01BDFEE7000047
:1005800080B5002000F0C4F8012000F0C1F800F0B0
:1005900006F901BD70B504000D0016008E488442B6
:1005A00001D2FFF7EBFF8D48844201D3FFF7E6FF4E
:1005B000102D01D3FFF7E2FF002E00D110350120EE
:1005C000A84014F11801086070BD38B504000D0092
:1005D0008148844201D2FFF7D1FF8048844201D391
:1005E000FFF7CCFF102D01D3FFF7C8FF14F1140063
:1005F00000680121A940484014F11401086031BD90
:1006000038B504000D007448844201D2FFF7B6FFEC
:100610007248844201D3FFF7B1FF102D01D3FFF7D9
:10062000ADFF20680090009803212A00D2B252004A
:10063000914088430090009801212A00D2B25200D4
:100640009140084300900098206014F10800006871
:100650000090009803212A00D2B2520091408843B2
:100660000090009802212A00D2B252009140084323
:100670000090009814F108010860201D00680090A7
:1006800000980121A94088430090009800900098AC
:10069000211D086014F10C000068009000980321EF
:1006A0002A00D2B2520091408843009000980090F6
:1006B000009814F10C01086031BD18B448480A21B3
:1006C00002680092009A03230C00E4B26400A34085
:1006D0009A430092009A03230C00E4B26400A34002
:1006E0001A430092009A026010F10C021268009204
:1006F000009A03230C00E4B26400A3409A430092E2
:10070000009A0092009A10F10C031A6011BC704715
:1007100010B582B00400E4B2002C15D13148006855
:1007200050F480702F4908602E48006810F48070E3
:100730000090009801212C48FFF762FF0022012160
:100740002948FFF727FF17E0E4B2012C14D1254810
:10075000006850F00100234908602248006810F04A
:1007600001000090009800211B48FFF749FF00227C
:1007700000211948FFF70EFF13BD10B50400E4B2C5
:10078000002C04D101211848FFF71FFF06E0E4B256
:10079000012C03D100211048FFF717FF10BD10B541
:1007A00082B01048006850F020000E4908600D48E3
:1007B000006810F020000090009806240A2C0AD24D
:1007C00021000748FFF71CFF002221000448FFF723
:1007D000E1FE641CF2E713BD00000240003002405D
:1007E00000140240303802400020024080B57448B6
:1007F000006850F48060724908607148006810F425
:10080000806000906F48006850F020006D490860DB
:100810006C48006810F020000090FFF74EFF01BD0B
:1008200080B5FFF7E3FF68480068406830F4403067
:1008300065490968486064480068406850F4803041
:1008400061490968486061480068406830F4807018
:100850005E49096848605D480068406830F0407053
:100860005A490968486059480068806830F4006057
:1008700056490968886055480068806830F07060A3
:1008800052490968886051480068806830F04050DB
:100890004E49096888604D480068806830F0020061
:1008A0004A490968886049480068406830F4006037
:1008B00046490968486045480068C06A30F47000DD
:1008C00042490968C86241480068C06A3F490968EE
:1008D000C8623E480068806830F400703B4909688F
:1008E00088603A480068806830F480603749096859
:1008F000886001BD35480068006930F0E060334928
:100900000968086131480068406B400940012F497F
:10091000096848632D480068406B50F008002B4977
:1009200009684863704710B582B0002000902848DD
:10093000046826480068806850F00100234909686F
:1009400088602448B4FBF0F00321484300900098ED
:10095000411E00910028FAD11C4800688068C00739
:1009600001D4FFF70BFE13BD80B5FFF759FFFFF76A
:10097000C1FFFFF7D8FF01BD10B51448006800683B
:10098000800701D5FFF7FAFD10480068806850F035
:1009900080400E49096888600C480068006880073C
:1009A000FAD50A480068006830F002000749096873
:1009B000086006480068C06C0400A4B2A00810BD1E
:1009C00044380240303802407C0B0008780B0008A5
:1009D0000000002040420F001248006850F47000F0
:1009E000104908601048006850F001000E49086086
:1009F00000200E4908600C4800680D4908400A496B
:100A000008600C480C4908600748006830F48020F2
:100A1000054908600020094908605FF00060084946
:100A20000860704788ED00E0003802400838024056
:100A3000FFFFF6FE10300024043802400C3802405C
:100A400008ED00E010B450F8041B79B10268436867
:100A500002440830DC0744BFA9F10104E31852F84E
:100A6000044B43F8044B091FF9D1ECE710BC704765
:100A700010B5074979441831064C7C44163404E01B
:100A80000A68081D114488470146A142F8D110BDEB
:100A9000540000006400000010B5FFF795FBFFF75D
:100AA0006FFDFFF761FFFFF767FF0400A40814F173
:100AB0003200FFF79CFB0120FFF75FFEF3E7000029
:100AC0004EF68851CEF20001086840F470000860CC
:100AD000BFF34F8FBFF36F8F4FF00070E1EE100A3E
:100AE0007047000061FFFFFF080000008400000065
:100AF000000000200000000000F00BF8002801D0EA
:100B0000FFF7B6FF0020AFF30080FFF7C5FF00F04E
:100B100002F80120704700F001B80000074638468F
:100B200000F002F8FBE7000080B5AFF30080024A56
:100B300011001820ABBEFBE7260002007047FEE75D
:100B4000FEE7FEE7FEE7FEE7FEE7FEE780B5FFF71C
:100B500045FB01BD0148804701480047D90900080D
:100B6000650B0008AFF30080FFF7AAFFFFF7C4FF93
:100B70000024F40000000000002201400023014096
:100B8000FFF7FEBFFFF7FEBFFFF7FEBFFFF7FEBF99
:100B9000FFF7FEBFFFF7FEBFFFF7FEBFFFF7FEBF89
:100BA000FFF7FEBFFFF7FEBFFFF7FEBFFFF7FEBF79
:100BB000FFF7FEBFFFF7FEBFFFF7FEBFFFF7FEBF69
:100BC000FFF7FEBFFFF7FEBFFFF7FEBFFFF7FEBF59
:100BD000FFF7FEBFFFF7FEBFFFF7FEBFFFF7FEBF49
:100BE000FFF7FEBFFFF7FEBFFFF7FEBFFFF7FEBF39
:100BF000FFF7FEBFFFF7FEBFFFF7FEBFFFF7FEBF29
:100C0000FFF7FEBFFFF7FEBFFFF7FEBFFFF7FEBF18
:100C1000FFF7FEBFFFF7FEBFFFF7FEBFFFF7FEBF08
:100C2000FFF7FEBFFFF7FEBFFFF7FEBFFFF7FEBFF8
:100C3000FFF7FEBFFFF7FEBFFFF7FEBFFFF7FEBFE8
:100C4000FFF7FEBFFFF7FEBFFFF7FEBFFFF7FEBFD8
:100C5000FFF7FEBFFFF7FEBFFFF7FEBFFFF7FEBFC8
:100C6000FFF7FEBFFFF7FEBFFFF7FEBFFFF7FEBFB8
:100C7000FFF7FEBFFFF7FEBFFFF7FEBFFFF7FEBFA8
:100C8000FFF7FEBFFFF7FEBFFFF7FEBFFFF7FEBF98
:100C9000FFF7FEBFFFF7FEBFFFF7FEBFFFF7FEBF88
:100CA000FFF7FEBFFFF7FEBFFFF7FEBFFFF7FEBF78
:100CB000FFF7FEBFFFF7FEBFFFF7FEBFFFF7FEBF68
:100CC000FFF7FEBFFFF7FEBFFFF7FEBFFFF7FEBF58
:100CD000FFF7FEBFFFF7FEBFFFF7FEBFFFF7FEBF48
:100CE000FFF7FEBFFFF7FEBFFFF7FEBFFFF7FEBF38
:100CF000FFF7FEBFFFF7FEBFFFF7FEBFFFF7FEBF28
:040D0000FFF7FEBF3C
:0400000508000B657F
:00000001FF
