:020000040800F2
:1000000008040020990900088109000883090008F4
:100010008509000887090008890900080000000018
:100020000000000000000000000000008B09000834
:100030008D090008000000008F09000891090008E0
:10004000BD090008C1090008C5090008C909000860
:10005000CD090008D1090008D5090008D909000810
:10006000DD090008E1090008E5090008E9090008C0
:10007000ED090008F1090008F5090008F909000870
:10008000FD090008010A0008050A0008090A00081D
:100090000D0A0008110A0008150A0008190A0008CC
:1000A0001D0A0008210A0008250A0008290A00087C
:1000B0002D0A0008310A0008350A0008390A00082C
:1000C0003D0A0008410A0008450A0008490A0008DC
:1000D0004D0A0008510A0008550A0008590A00088C
:1000E0005D0A0008610A0008650A0008690A00083C
:1000F0006D0A0008710A0008750A0008790A0008EC
:100100007D0A0008810A0008850A0008890A00089B
:100110008D0A0008910A0008950A0008990A00084B
:100120009D0A0008A10A0008A50A0008A90A0008FB
:10013000AD0A0008B10A0008B50A0008B90A0008AB
:10014000BD0A0008C10A0008C50A0008C90A00085B
:10015000CD0A0008D10A0008D50A0008D90A00080B
:10016000DD0A0008E10A0008E50A0008E90A0008BB
:10017000ED0A0008F10A0008F50A00080000000076
:10018000F90A0008FD0A0008010B0008050B000829
:10019000090B00080D0B0008110B0008150B0008D7
:1001A000190B00081D0B0008210B0008250B000887
:1001B000290B00082D0B0008310B0008350B000837
:1001C000390B00083D0B000880B500F01BF800F06B
:1001D00021F800F0D3F800F0C9F901BDC548006866
:1001E000401CC44908607047C2480068704738B571
:1001F0000400FFF7F9FF0500FFF7F6FF401BA042E0
:10020000FAD331BD80B500F00BF800F023F800F010
:1002100013F801BD80B500F027F800F037F801BDF4
:10022000BFF35F8FB448006810F48030B2490860B3
:100230000020B249086070470520B0490860AE4808
:10024000006850F48030AC490860BFF35F8FBFF3A3
:100250006F8F70470020AA490860AA48AA49086021
:10026000AA48AB4908607047BFF34F8FBFF36F8F49
:100270000020A8490860A848006850F40030A6494A
:100280000860BFF34F8FBFF36F8F704710B400202B
:10029000A2490860BFF34F8FA14800681F210322C5
:1002A00043F6E07313EA411353EA82739D4C2360D3
:1002B00013005A1E002BF3D10A00511E002AEED162
:1002C000BFF34F8F944A126852F48032924B1A60F7
:1002D000BFF34F8FBFF36F8F10BC70479248006819
:1002E00050F4007090490860704781B010F007002A
:1002F0008E490968009100994FF6FF021140009164
:1003000000998B4A52EA0022114300910099874AD2
:10031000116001B07047B0F1807F02D37FF07F4160
:100320000800411E834A1160F021834A11700021A8
:10033000824A11600721824A1160704770B47B497C
:100340000968C1F30221D1F10702131F012494406F
:10035000641E9C4014F00F042501774E357070BC6C
:10036000704738B504000D004FF47A70B5FBF0F01B
:10037000FFF7D1FF2000FFF7E1FF31BD80B5FFF7A8
:10038000ADFF0320FFF7B1FF6E490F20FFF7E9FF34
:1003900001BD80B56C48006850F480306A4908603F
:1003A000694800688003FBD56848006810F00C00BD
:1003B000082801D100F0E2F86348006830F080704E
:1003C00061490860604800688001FBD46048614969
:1003D00008605D48006850F080705B4908605A48CA
:1003E00000688001FBD501BD81B05B48006850F01A
:1003F0008050594908605848006810F080500090BB
:100400005648006850F480305449086054480068E9
:10041000002801D1012000E000205048006850F47D
:1004200000304E4908604E480068002801D1012084
:1004300000E0002001B0704780B53B4800680090A4
:100440000098000900010090009850F0070000900B
:100450000098354908603448006810F00F000728FC
:1004600001D000F08BF8394800680090009830F017
:10047000F0000090009800900098344908603348DC
:10048000006800900098800800900098800000901C
:10049000009850F00200009000982C4908602B480A
:1004A000006810F00C000828F9D128480068009076
:1004B000009830F4E0500090009850F4A050009064
:1004C000009822490860214800680090009830F4A4
:1004D00060400090009850F40040009000981B4944
:1004E00008602048204908601F4801680F20FFF776
:1004F00038FF01BD0400002024ED00E094ED00E091
:1005000098ED00E0000001209CED00E023000203D4
:10051000A0ED00E050EF00E014ED00E084ED00E01D
:1005200080ED00E060EF00E0003C02400CED00E0F8
:100530000000FA0514E000E023ED00E018E000E020
:1005400010E000E00024F4000038024008380240C7
:10055000196C4029043802404038024000700040C5
:100560000470004000E6DF0C0000002080B5FFF7BB
:1005700010FFFFF739FFFFF75FFF01BDFEE7000047
:1005800080B5002000F0AFF8012000F0ACF800F0DA
:1005900019F901BD70B504000E0015009848844299
:1005A00001D2FFF7EBFF9748844201D3FFF7E6FF44
:1005B000202E01D3FFF7E2FF022D01D3FFF7DEFF6C
:1005C0008F48844202D38F48844200D3FEE7202E16
:1005D00000D3FEE7022D00D3FEE7002D00D1103638
:1005E0000120B04014F11801086070BD38B5040056
:1005F0000D008348844201D2FFF7C0FF8148844246
:1006000001D3FFF7BBFF202D01D3FFF7B7FF7C48D5
:10061000844202D37B48844200D3FEE7202D00D3DE
:10062000FEE714F1140000680121A940484014F1CC
:100630001401086031BD18B4714A904202D3714A66
:10064000904200D3FEE7202900D3FEE70268009223
:10065000009A03230C00E4B26400A3409A43009282
:10066000009A01230C00E4B26400A3401A430092F4
:10067000009A026010F1080212680092009A0323A7
:100680000C00E4B26400A3409A430092009A022353
:100690000C00E4B26400A3401A430092009A10F1E7
:1006A00008031A60021D12680092009A01238B4011
:1006B0009A430092009A0092009A031D1A6010F16A
:1006C0000C0212680092009A03230C00E4B264004A
:1006D000A3409A430092009A0092009A10F10C03F2
:1006E0001A6011BC704710B582B00400E4B2002C4F
:1006F00015D14648006850F480704449086043486A
:10070000006810F480700090009801214048FFF7C5
:1007100092FF002201213E48FFF73CFF17E0E4B2C0
:10072000012C14D13948006850F0010037490860A5
:100730003648006810F00100009000980021304811
:10074000FFF779FF002200212D48FFF723FF13BD9B
:1007500010B50400E4B2002C05D1012201212C487F
:10076000FFF718FF07E0E4B2012C04D101220021B9
:100770002348FFF70FFF10BD10B50400E4B2002CB2
:1007800005D1002201212248FFF704FF07E0E4B26F
:10079000012C04D1002200211948FFF7FBFE10BDF7
:1007A00010B50400E4B2002C04D101211848FFF771
:1007B0001DFF06E0E4B2012C03D100211048FFF731
:1007C00015FF10BD10B582B01048006850F0200031
:1007D0000E4908600D48006810F020000090009855
:1007E00006240A2C0AD221000748FFF724FF002222
:1007F00021000548FFF7CEFE641CF2E713BD0000A0
:100800000000024000300240001402403038024034
:10081000002002401248006850F47000104908603F
:100820001048006850F001000E49086000200E4991
:1008300008600C4800680D4908400A4908600C48E7
:100840000C4908600748006830F4802005490860BA
:100850000020094908605FF000600849086070479F
:1008600088ED00E00038024008380240FFFFF6FE45
:1008700010300024043802400C38024008ED00E03B
:1008800010B5FFF7A1FCFFF77BFE4FF4FA740020D0
:10089000FFF75EFF0120FFF76FFF0020FFF780FFEB
:1008A0000120FFF77DFF2000FFF7A1FCF5E710B462
:1008B00050F8041B79B10268436802440830DC0731
:1008C00044BFA9F10104E31852F8044B43F8044B68
:1008D000091FF9D1ECE710BC7047000010B50749BB
:1008E00079441831064C7C44163404E00A68081D2B
:1008F000114488470146A142F8D110BD2C000000E8
:100900003C0000004EF68851CEF20001086840F429
:1009100070000860BFF34F8FBFF36F8F4FF0007010
:10092000E1EE100A7047000087FFFFFF080000009B
:1009300084000000000000200000000000F00BF820
:10094000002801D0FFF7CAFF0020AFF30080FFF7B7
:1009500097FF00F002F80120704700F001B8000096
:100960000746384600F002F8FBE7000080B5AFF319
:100970000080024A11001820ABBEFBE726000200EF
:100980007047FEE7FEE7FEE7FEE7FEE7FEE7FEE76D
:1009900080B5FFF723FC01BD0148804701480047AF
:1009A00015080008A9090008AFF30080FFF7AAFFA7
:1009B000FFF7C4FF0024F40000000000FFF7FEBFB3
:1009C000FFF7FEBFFFF7FEBFFFF7FEBFFFF7FEBF5B
:1009D000FFF7FEBFFFF7FEBFFFF7FEBFFFF7FEBF4B
:1009E000FFF7FEBFFFF7FEBFFFF7FEBFFFF7FEBF3B
:1009F000FFF7FEBFFFF7FEBFFFF7FEBFFFF7FEBF2B
:100A0000FFF7FEBFFFF7FEBFFFF7FEBFFFF7FEBF1A
:100A1000FFF7FEBFFFF7FEBFFFF7FEBFFFF7FEBF0A
:100A2000FFF7FEBFFFF7FEBFFFF7FEBFFFF7FEBFFA
:100A3000FFF7FEBFFFF7FEBFFFF7FEBFFFF7FEBFEA
:100A4000FFF7FEBFFFF7FEBFFFF7FEBFFFF7FEBFDA
:100A5000FFF7FEBFFFF7FEBFFFF7FEBFFFF7FEBFCA
:100A6000FFF7FEBFFFF7FEBFFFF7FEBFFFF7FEBFBA
:100A7000FFF7FEBFFFF7FEBFFFF7FEBFFFF7FEBFAA
:100A8000FFF7FEBFFFF7FEBFFFF7FEBFFFF7FEBF9A
:100A9000FFF7FEBFFFF7FEBFFFF7FEBFFFF7FEBF8A
:100AA000FFF7FEBFFFF7FEBFFFF7FEBFFFF7FEBF7A
:100AB000FFF7FEBFFFF7FEBFFFF7FEBFFFF7FEBF6A
:100AC000FFF7FEBFFFF7FEBFFFF7FEBFFFF7FEBF5A
:100AD000FFF7FEBFFFF7FEBFFFF7FEBFFFF7FEBF4A
:100AE000FFF7FEBFFFF7FEBFFFF7FEBFFFF7FEBF3A
:100AF000FFF7FEBFFFF7FEBFFFF7FEBFFFF7FEBF2A
:100B0000FFF7FEBFFFF7FEBFFFF7FEBFFFF7FEBF19
:100B1000FFF7FEBFFFF7FEBFFFF7FEBFFFF7FEBF09
:100B2000FFF7FEBFFFF7FEBFFFF7FEBFFFF7FEBFF9
:100B3000FFF7FEBFFFF7FEBFFFF7FEBFFFF7FEBFE9
:04000005080009A93D
:00000001FF
