:020000040800F2
:1000000008040020A50B00088D0B00088F0B0008CA
:10001000910B0008930B0008950B000800000000EE
:10002000000000000000000000000000970B000826
:10003000990B0008000000009B0B00089D0B0008B6
:10004000D10B0008D50B0008D90B0008DD0B000808
:10005000E10B0008E50B0008E90B0008ED0B0008B8
:10006000F10B0008F50B0008F90B0008FD0B000868
:10007000010C0008050C0008090C00080D0C000814
:10008000110C0008150C0008190C00081D0C0008C4
:10009000210C0008250C0008290C00082D0C000874
:1000A000310C0008350C0008390C00083D0C000824
:1000B000410C0008450C0008490C00084D0C0008D4
:1000C000510C0008550C0008590C00085D0C000884
:1000D000610C0008650C0008690C00086D0C000834
:1000E000710C0008750C0008790C00087D0C0008E4
:1000F000810C0008850C0008890C00088D0C000894
:10010000910C0008950C0008990C00089D0C000843
:10011000A10C0008A50C0008A90C0008AD0C0008F3
:10012000B10C0008B50C0008B90C0008BD0C0008A3
:10013000C10C0008C50C0008C90C0008CD0C000853
:10014000D10C0008D50C0008D90C0008DD0C000803
:10015000E10C0008E50C0008E90C0008ED0C0008B3
:10016000F10C0008F50C0008F90C0008FD0C000863
:10017000010D0008050D0008090D00080000000031
:100180000D0D0008110D0008150D0008190D0008CF
:100190001D0D0008210D0008250D0008290D00087F
:1001A0002D0D0008310D0008350D0008390D00082F
:1001B0003D0D0008410D0008450D0008490D0008DF
:1001C0004D0D0008510D000880B500F01BF800F03F
:1001D00021F800F0D3F800F0C9F901BDC548006866
:1001E000401CC44908607047C2480068704738B571
:1001F0000400FFF7F9FF0500FFF7F6FF401BA042E0
:10020000FAD331BD80B500F00BF800F023F800F010
:1002100013F801BD80B500F027F800F037F801BDF4
:10022000BFF35F8FB448006810F48030B2490860B3
:100230000020B249086070470520B0490860AE4808
:10024000006850F48030AC490860BFF35F8FBFF3A3
:100250006F8F70470020AA490860AA48AA49086021
:10026000AA48AB4908607047BFF34F8FBFF36F8F49
:100270000020A8490860A848006850F40030A6494A
:100280000860BFF34F8FBFF36F8F704710B400202B
:10029000A2490860BFF34F8FA14800681F210322C5
:1002A00043F6E07313EA411353EA82739D4C2360D3
:1002B00013005A1E002BF3D10A00511E002AEED162
:1002C000BFF34F8F944A126852F48032924B1A60F7
:1002D000BFF34F8FBFF36F8F10BC70479248006819
:1002E00050F4007090490860704781B010F007002A
:1002F0008E490968009100994FF6FF021140009164
:1003000000998B4A52EA0022114300910099874AD2
:10031000116001B07047B0F1807F02D37FF07F4160
:100320000800411E834A1160F021834A11700021A8
:10033000824A11600721824A1160704770B47B497C
:100340000968C1F30221D1F10702131F012494406F
:10035000641E9C4014F00F042501774E357070BC6C
:10036000704738B504000D004FF47A70B5FBF0F01B
:10037000FFF7D1FF2000FFF7E1FF31BD80B5FFF7A8
:10038000ADFF0320FFF7B1FF6E490F20FFF7E9FF34
:1003900001BD80B56C48006850F480306A4908603F
:1003A000694800688003FBD56848006810F00C00BD
:1003B000082801D100F0E2F86348006830F080704E
:1003C00061490860604800688001FBD46048614969
:1003D00008605D48006850F080705B4908605A48CA
:1003E00000688001FBD501BD81B05B48006850F01A
:1003F0008050594908605848006810F080500090BB
:100400005648006850F480305449086054480068E9
:10041000002801D1012000E000205048006850F47D
:1004200000304E4908604E480068002801D1012084
:1004300000E0002001B0704780B53B4800680090A4
:100440000098000900010090009850F0070000900B
:100450000098354908603448006810F00F000728FC
:1004600001D000F08BF8394800680090009830F017
:10047000F0000090009800900098344908603348DC
:10048000006800900098800800900098800000901C
:10049000009850F00200009000982C4908602B480A
:1004A000006810F00C000828F9D128480068009076
:1004B000009830F4E0500090009850F4A050009064
:1004C000009822490860214800680090009830F4A4
:1004D00060400090009850F40040009000981B4944
:1004E00008602048204908601F4801680F20FFF776
:1004F00038FF01BD0400002024ED00E094ED00E091
:1005000098ED00E0000001209CED00E023000203D4
:10051000A0ED00E050EF00E014ED00E084ED00E01D
:1005200080ED00E060EF00E0003C02400CED00E0F8
:100530000000FA0514E000E023ED00E018E000E020
:1005400010E000E00024F4000038024008380240C7
:10055000196C4029043802404038024000700040C5
:100560000470004000E6DF0C0000002080B5FFF7BB
:1005700010FFFFF739FFFFF75FFF01BDFEE7000047
:1005800080B5002000F0E4F8012000F0E1F800F070
:100590003AF901BD70B504000E001500A848844268
:1005A00001D2FFF7EBFFA748844201D3FFF7E6FF34
:1005B000202E01D3FFF7E2FF022D01D3FFF7DEFF6C
:1005C0009F48844202D39F48844200D3FEE7202EF6
:1005D00000D3FEE7022D00D3FEE7002D00D1103638
:1005E0000120B04014F11801086070BD38B5040056
:1005F0000D009348844201D2FFF7C0FF9148844226
:1006000001D3FFF7BBFF202D01D3FFF7B7FF8C48C5
:10061000844202D38B48844200D3FEE7202D00D3CE
:10062000FEE714F1140000680121A940484014F1CC
:100630001401086031BD18B4814A904202D3814A46
:10064000904200D3FEE7202900D3FEE70268009223
:10065000009A03230C00E4B26400A3409A43009282
:10066000009A01230C00E4B26400A3401A430092F4
:10067000009A026010F1080212680092009A0323A7
:100680000C00E4B26400A3409A430092009A022353
:100690000C00E4B26400A3401A430092009A10F1E7
:1006A00008031A60021D12680092009A01238B4011
:1006B0009A430092009A0092009A031D1A6010F16A
:1006C0000C0212680092009A03230C00E4B264004A
:1006D000A3409A430092009A0092009A10F10C03F2
:1006E0001A6011BC704718B457480A21544A904206
:1006F00002D3544A904200D3FEE7202900D3FEE7FC
:1007000002680092009A03230C00E4B26400A34044
:100710009A430092009A03230C00E4B26400A340C1
:100720001A430092009A026010F10C0212680092C3
:10073000009A03230C00E4B26400A3409A430092A1
:10074000009A0092009A10F10C031A6011BC7047D5
:1007500010B582B00400E4B2002C15D13B4800680B
:1007600050F48070394908603848006810F480708F
:100770000090009801213648FFF75DFF002201211B
:100780003348FFF707FF17E0E4B2012C14D12F48DC
:10079000006850F001002D4908602C48006810F0F6
:1007A00001000090009800212548FFF744FF002237
:1007B00000212348FFF7EEFE13BD10B50400E4B29C
:1007C000002C05D1002201212148FFF7E3FE07E0BC
:1007D000E4B2012C04D1002200211948FFF7DAFE0F
:1007E00010BD10B50400E4B2002C04D1012118485A
:1007F000FFF7FCFE06E0E4B2012C03D10021104813
:10080000FFF7F4FE10BD10B582B01048006850F03C
:1008100020000E4908600D48006810F0200000908C
:10082000009806240A2C0AD221000748FFF703FF8C
:10083000002221000448FFF7ADFE641CF2E713BD5F
:1008400000000240003002400014024030380240F4
:100850000020024080B56C48006850F480606A490E
:1008600008606948006810F480600090674800687C
:1008700050F02000654908606448006810F02000CE
:100880000090FFF730FF01BD80B5FFF7E3FF0120C7
:100890005F490968496860F311415D48006841603B
:1008A0005C480068406830F480705A4909684860C4
:1008B00058480068406830F48070564909684860BC
:1008C00054480068806830F40060524909688860C4
:1008D00050480068806830F040504E490968886090
:1008E0004C480068806830F002004A490968886016
:1008F00048480068406830F400604649096848602C
:10090000012044490968C96A60F3175141480068E9
:10091000C16240480068806830F400703D49096851
:1009200088603C480068006830F002003949096876
:10093000086001BD37480068006930F4600035493F
:100940000968086133480068406B4009400131493B
:10095000096848632F480068406B50F008002D4933
:1009600009684863704710B582B0002000902A489B
:10097000046828480068806850F00100254909682B
:1009800088602648B4FBF0F00321484300900098AB
:10099000411E00910028FAD11E4800688068C007F7
:1009A00001D4FFF7EBFD13BD80B5FFF76DFFFFF737
:1009B000C1FFFFF7D8FF01BD10B5164800680068F9
:1009C000C0F34000002801D0FFF7D8FD11480068AF
:1009D000806850F080400F49096888600D480068C1
:1009E0000068C0F340000028F8D00A48006800689A
:1009F00030F0020007490968086006480068C06CCA
:100A00000400A4B2A00810BD4438024030380240AF
:100A1000CC0B0008C80B00080000002040420F006B
:100A20001248006850F470001049086010480068CF
:100A300050F001000E49086000200E4908600C4883
:100A400000680D4908400A4908600C480C490860D4
:100A50000748006830F480200549086000200949F3
:100A600008605FF0006008490860704788ED00E0AA
:100A70000038024008380240FFFFF6FE1030002424
:100A8000043802400C38024008ED00E038B5FFF7AA
:100A90009BFBFFF775FDFFF787FF4FF4FA7401200A
:100AA000FFF78BFEFFF788FF0500AD0815F1320058
:100AB000FFF79DFB0120FFF794FEF3E710B450F819
:100AC000041B79B10268436802440830DC0744BF64
:100AD000A9F10104E31852F8044B43F8044B091F31
:100AE000F9D1ECE710BC704710B5074979441831CB
:100AF000064C7C44163404E00A68081D11448847FB
:100B00000146A142F8D110BD2C0000003C000000BD
:100B10004EF68851CEF20001086840F4700008607B
:100B2000BFF34F8FBFF36F8F4FF00070E1EE100AED
:100B30007047000089FFFFFF0800000084000000EC
:100B4000000000200000000000F00BF8002801D099
:100B5000FFF7CAFF0020AFF30080FFF797FF00F018
:100B600002F80120704700F001B80000074638463F
:100B700000F002F8FBE7000080B5AFF30080024A06
:100B800011001820ABBEFBE7260002007047FEE70D
:100B9000FEE7FEE7FEE7FEE7FEE7FEE780B5FFF7CC
:100BA0001DFB01BD0148804701480047210A00089C
:100BB000B50B0008AFF30080FFF7AAFFFFF7C4FFF3
:100BC0000024F40000000000002201400023014046
:100BD000FFF7FEBFFFF7FEBFFFF7FEBFFFF7FEBF49
:100BE000FFF7FEBFFFF7FEBFFFF7FEBFFFF7FEBF39
:100BF000FFF7FEBFFFF7FEBFFFF7FEBFFFF7FEBF29
:100C0000FFF7FEBFFFF7FEBFFFF7FEBFFFF7FEBF18
:100C1000FFF7FEBFFFF7FEBFFFF7FEBFFFF7FEBF08
:100C2000FFF7FEBFFFF7FEBFFFF7FEBFFFF7FEBFF8
:100C3000FFF7FEBFFFF7FEBFFFF7FEBFFFF7FEBFE8
:100C4000FFF7FEBFFFF7FEBFFFF7FEBFFFF7FEBFD8
:100C5000FFF7FEBFFFF7FEBFFFF7FEBFFFF7FEBFC8
:100C6000FFF7FEBFFFF7FEBFFFF7FEBFFFF7FEBFB8
:100C7000FFF7FEBFFFF7FEBFFFF7FEBFFFF7FEBFA8
:100C8000FFF7FEBFFFF7FEBFFFF7FEBFFFF7FEBF98
:100C9000FFF7FEBFFFF7FEBFFFF7FEBFFFF7FEBF88
:100CA000FFF7FEBFFFF7FEBFFFF7FEBFFFF7FEBF78
:100CB000FFF7FEBFFFF7FEBFFFF7FEBFFFF7FEBF68
:100CC000FFF7FEBFFFF7FEBFFFF7FEBFFFF7FEBF58
:100CD000FFF7FEBFFFF7FEBFFFF7FEBFFFF7FEBF48
:100CE000FFF7FEBFFFF7FEBFFFF7FEBFFFF7FEBF38
:100CF000FFF7FEBFFFF7FEBFFFF7FEBFFFF7FEBF28
:100D0000FFF7FEBFFFF7FEBFFFF7FEBFFFF7FEBF17
:100D1000FFF7FEBFFFF7FEBFFFF7FEBFFFF7FEBF07
:100D2000FFF7FEBFFFF7FEBFFFF7FEBFFFF7FEBFF7
:100D3000FFF7FEBFFFF7FEBFFFF7FEBFFFF7FEBFE7
:100D4000FFF7FEBFFFF7FEBFFFF7FEBFFFF7FEBFD7
:040D5000FFF7FEBFEC
:0400000508000BB52F
:00000001FF
